{
  "contractName": "CharityChain",
  "abi": [
    {
      "inputs": [],
      "stateMutability": "nonpayable",
      "type": "constructor"
    },
    {
      "anonymous": false,
      "inputs": [
        {
          "indexed": false,
          "internalType": "uint256",
          "name": "id",
          "type": "uint256"
        },
        {
          "indexed": false,
          "internalType": "string",
          "name": "name",
          "type": "string"
        },
        {
          "indexed": false,
          "internalType": "uint256",
          "name": "coins_wanted",
          "type": "uint256"
        },
        {
          "indexed": false,
          "internalType": "address payable",
          "name": "addr_org",
          "type": "address"
        },
        {
          "indexed": false,
          "internalType": "bool",
          "name": "reqSatisfied",
          "type": "bool"
        }
      ],
      "name": "OrganisationCreated",
      "type": "event"
    },
    {
      "anonymous": false,
      "inputs": [
        {
          "indexed": false,
          "internalType": "uint256",
          "name": "id",
          "type": "uint256"
        },
        {
          "indexed": false,
          "internalType": "string",
          "name": "name",
          "type": "string"
        },
        {
          "indexed": false,
          "internalType": "uint256",
          "name": "coins_wanted",
          "type": "uint256"
        },
        {
          "indexed": false,
          "internalType": "address payable",
          "name": "addr_org",
          "type": "address"
        },
        {
          "indexed": false,
          "internalType": "bool",
          "name": "reqSatisfied",
          "type": "bool"
        }
      ],
      "name": "OrganisationDonated",
      "type": "event"
    },
    {
      "inputs": [],
      "name": "name",
      "outputs": [
        {
          "internalType": "string",
          "name": "",
          "type": "string"
        }
      ],
      "stateMutability": "view",
      "type": "function"
    },
    {
      "inputs": [
        {
          "internalType": "uint256",
          "name": "",
          "type": "uint256"
        }
      ],
      "name": "organisations",
      "outputs": [
        {
          "internalType": "uint256",
          "name": "id",
          "type": "uint256"
        },
        {
          "internalType": "string",
          "name": "name",
          "type": "string"
        },
        {
          "internalType": "uint256",
          "name": "coins_wanted",
          "type": "uint256"
        },
        {
          "internalType": "address payable",
          "name": "addr_org",
          "type": "address"
        },
        {
          "internalType": "bool",
          "name": "reqSatisfied",
          "type": "bool"
        }
      ],
      "stateMutability": "view",
      "type": "function"
    },
    {
      "inputs": [],
      "name": "orgsCount",
      "outputs": [
        {
          "internalType": "uint256",
          "name": "",
          "type": "uint256"
        }
      ],
      "stateMutability": "view",
      "type": "function"
    },
    {
      "inputs": [
        {
          "internalType": "string",
          "name": "_name",
          "type": "string"
        },
        {
          "internalType": "uint256",
          "name": "_coins_wanted",
          "type": "uint256"
        }
      ],
      "name": "createOrganisation",
      "outputs": [],
      "stateMutability": "nonpayable",
      "type": "function"
    },
    {
      "inputs": [
        {
          "internalType": "uint256",
          "name": "_id",
          "type": "uint256"
        }
      ],
      "name": "giveDonation",
      "outputs": [],
      "stateMutability": "payable",
      "type": "function"
    }
  ],
  "bytecode": "0x608060405260006001553480156200001657600080fd5b506040518060400160405280600d81526020017f4368617269747920436861696e00000000000000000000000000000000000000815250600090816200005d9190620002de565b50620003c5565b600081519050919050565b7f4e487b7100000000000000000000000000000000000000000000000000000000600052604160045260246000fd5b7f4e487b7100000000000000000000000000000000000000000000000000000000600052602260045260246000fd5b60006002820490506001821680620000e657607f821691505b602082108103620000fc57620000fb6200009e565b5b50919050565b60008190508160005260206000209050919050565b60006020601f8301049050919050565b600082821b905092915050565b600060088302620001667fffffffffffffffffffffffffffffffffffffffffffffffffffffffffffffffff8262000127565b62000172868362000127565b95508019841693508086168417925050509392505050565b6000819050919050565b6000819050919050565b6000620001bf620001b9620001b3846200018a565b62000194565b6200018a565b9050919050565b6000819050919050565b620001db836200019e565b620001f3620001ea82620001c6565b84845462000134565b825550505050565b600090565b6200020a620001fb565b62000217818484620001d0565b505050565b5b818110156200023f576200023360008262000200565b6001810190506200021d565b5050565b601f8211156200028e57620002588162000102565b620002638462000117565b8101602085101562000273578190505b6200028b620002828562000117565b8301826200021c565b50505b505050565b600082821c905092915050565b6000620002b36000198460080262000293565b1980831691505092915050565b6000620002ce8383620002a0565b9150826002028217905092915050565b620002e98262000064565b67ffffffffffffffff8111156200030557620003046200006f565b5b620003118254620000cd565b6200031e82828562000243565b600060209050601f83116001811462000356576000841562000341578287015190505b6200034d8582620002c0565b865550620003bd565b601f198416620003668662000102565b60005b82811015620003905784890151825560018201915060208501945060208101905062000369565b86831015620003b05784890151620003ac601f891682620002a0565b8355505b6001600288020188555050505b505050505050565b610e7780620003d56000396000f3fe60806040526004361061004a5760003560e01c8063040f198f1461004f57806306fdde031461007a578063246f8c44146100a55780635edae570146100e6578063c5802e3a14610102575b600080fd5b34801561005b57600080fd5b5061006461012b565b604051610071919061076b565b60405180910390f35b34801561008657600080fd5b5061008f610131565b60405161009c9190610816565b60405180910390f35b3480156100b157600080fd5b506100cc60048036038101906100c79190610878565b6101bf565b6040516100dd959493929190610901565b60405180910390f35b61010060048036038101906100fb9190610878565b6102aa565b005b34801561010e57600080fd5b5061012960048036038101906101249190610a90565b6105ee565b005b60015481565b6000805461013e90610b1b565b80601f016020809104026020016040519081016040528092919081815260200182805461016a90610b1b565b80156101b75780601f1061018c576101008083540402835291602001916101b7565b820191906000526020600020905b81548152906001019060200180831161019a57829003601f168201915b505050505081565b60026020528060005260406000206000915090508060000154908060010180546101e890610b1b565b80601f016020809104026020016040519081016040528092919081815260200182805461021490610b1b565b80156102615780601f1061023657610100808354040283529160200191610261565b820191906000526020600020905b81548152906001019060200180831161024457829003601f168201915b5050505050908060020154908060030160009054906101000a900473ffffffffffffffffffffffffffffffffffffffff16908060030160149054906101000a900460ff16905085565b6000600260008381526020019081526020016000206040518060a0016040529081600082015481526020016001820180546102e490610b1b565b80601f016020809104026020016040519081016040528092919081815260200182805461031090610b1b565b801561035d5780601f106103325761010080835404028352916020019161035d565b820191906000526020600020905b81548152906001019060200180831161034057829003601f168201915b50505050508152602001600282015481526020016003820160009054906101000a900473ffffffffffffffffffffffffffffffffffffffff1673ffffffffffffffffffffffffffffffffffffffff1673ffffffffffffffffffffffffffffffffffffffff1681526020016003820160149054906101000a900460ff1615151515815250509050600081606001519050600082600001511180156104065750600154826000015111155b61040f57600080fd5b816040015134101561042057600080fd5b81608001511561042f57600080fd5b3373ffffffffffffffffffffffffffffffffffffffff168173ffffffffffffffffffffffffffffffffffffffff160361046757600080fd5b33826060019073ffffffffffffffffffffffffffffffffffffffff16908173ffffffffffffffffffffffffffffffffffffffff1681525050600182608001901515908115158152505081600260008581526020019081526020016000206000820151816000015560208201518160010190816104e39190610cf8565b506040820151816002015560608201518160030160006101000a81548173ffffffffffffffffffffffffffffffffffffffff021916908373ffffffffffffffffffffffffffffffffffffffff16021790555060808201518160030160146101000a81548160ff0219169083151502179055509050508073ffffffffffffffffffffffffffffffffffffffff166108fc349081150290604051600060405180830381858888f1935050505015801561059e573d6000803e3d6000fd5b507f406c9231f0109543fe205fc6ea7259106f7abc83300bf8a0d40018c50c49d032600154836020015184604001513360016040516105e1959493929190610901565b60405180910390a1505050565b60008251116105fc57600080fd5b6000811161060957600080fd5b6001600081548092919061061c90610df9565b91905055506040518060a0016040528060015481526020018381526020018281526020013373ffffffffffffffffffffffffffffffffffffffff168152602001600015158152506002600060015481526020019081526020016000206000820151816000015560208201518160010190816106979190610cf8565b506040820151816002015560608201518160030160006101000a81548173ffffffffffffffffffffffffffffffffffffffff021916908373ffffffffffffffffffffffffffffffffffffffff16021790555060808201518160030160146101000a81548160ff0219169083151502179055509050507f1acaab70783ea15958153507bf264f308a982bf15231132188438f4f9eac95036001548383336000604051610746959493929190610901565b60405180910390a15050565b6000819050919050565b61076581610752565b82525050565b6000602082019050610780600083018461075c565b92915050565b600081519050919050565b600082825260208201905092915050565b60005b838110156107c05780820151818401526020810190506107a5565b60008484015250505050565b6000601f19601f8301169050919050565b60006107e882610786565b6107f28185610791565b93506108028185602086016107a2565b61080b816107cc565b840191505092915050565b6000602082019050818103600083015261083081846107dd565b905092915050565b6000604051905090565b600080fd5b600080fd5b61085581610752565b811461086057600080fd5b50565b6000813590506108728161084c565b92915050565b60006020828403121561088e5761088d610842565b5b600061089c84828501610863565b91505092915050565b600073ffffffffffffffffffffffffffffffffffffffff82169050919050565b60006108d0826108a5565b9050919050565b6108e0816108c5565b82525050565b60008115159050919050565b6108fb816108e6565b82525050565b600060a082019050610916600083018861075c565b818103602083015261092881876107dd565b9050610937604083018661075c565b61094460608301856108d7565b61095160808301846108f2565b9695505050505050565b600080fd5b600080fd5b7f4e487b7100000000000000000000000000000000000000000000000000000000600052604160045260246000fd5b61099d826107cc565b810181811067ffffffffffffffff821117156109bc576109bb610965565b5b80604052505050565b60006109cf610838565b90506109db8282610994565b919050565b600067ffffffffffffffff8211156109fb576109fa610965565b5b610a04826107cc565b9050602081019050919050565b82818337600083830152505050565b6000610a33610a2e846109e0565b6109c5565b905082815260208101848484011115610a4f57610a4e610960565b5b610a5a848285610a11565b509392505050565b600082601f830112610a7757610a7661095b565b5b8135610a87848260208601610a20565b91505092915050565b60008060408385031215610aa757610aa6610842565b5b600083013567ffffffffffffffff811115610ac557610ac4610847565b5b610ad185828601610a62565b9250506020610ae285828601610863565b9150509250929050565b7f4e487b7100000000000000000000000000000000000000000000000000000000600052602260045260246000fd5b60006002820490506001821680610b3357607f821691505b602082108103610b4657610b45610aec565b5b50919050565b60008190508160005260206000209050919050565b60006020601f8301049050919050565b600082821b905092915050565b600060088302610bae7fffffffffffffffffffffffffffffffffffffffffffffffffffffffffffffffff82610b71565b610bb88683610b71565b95508019841693508086168417925050509392505050565b6000819050919050565b6000610bf5610bf0610beb84610752565b610bd0565b610752565b9050919050565b6000819050919050565b610c0f83610bda565b610c23610c1b82610bfc565b848454610b7e565b825550505050565b600090565b610c38610c2b565b610c43818484610c06565b505050565b5b81811015610c6757610c5c600082610c30565b600181019050610c49565b5050565b601f821115610cac57610c7d81610b4c565b610c8684610b61565b81016020851015610c95578190505b610ca9610ca185610b61565b830182610c48565b50505b505050565b600082821c905092915050565b6000610ccf60001984600802610cb1565b1980831691505092915050565b6000610ce88383610cbe565b9150826002028217905092915050565b610d0182610786565b67ffffffffffffffff811115610d1a57610d19610965565b5b610d248254610b1b565b610d2f828285610c6b565b600060209050601f831160018114610d625760008415610d50578287015190505b610d5a8582610cdc565b865550610dc2565b601f198416610d7086610b4c565b60005b82811015610d9857848901518255600182019150602085019450602081019050610d73565b86831015610db55784890151610db1601f891682610cbe565b8355505b6001600288020188555050505b505050505050565b7f4e487b7100000000000000000000000000000000000000000000000000000000600052601160045260246000fd5b6000610e0482610752565b91507fffffffffffffffffffffffffffffffffffffffffffffffffffffffffffffffff8203610e3657610e35610dca565b5b60018201905091905056fea2646970667358221220118f0ca9d97c354e86442a0d68cf10b3df3901af5ec52fa8b506b9c5ae6b721d64736f6c63430008130033",
  "immutableReferences": {},
  "source": "// SPDX-License-Identifier: MIT\r\npragma solidity ^0.8.19;\r\n\r\ncontract CharityChain {\r\n  string public name;\r\n  uint public orgsCount = 0;\r\n\r\n  mapping(uint => Organisation) public organisations;\r\n\r\n  struct Organisation {\r\n    uint id;\r\n    string name;\r\n    uint coins_wanted;\r\n    address payable addr_org;\r\n    bool reqSatisfied;\r\n  }\r\n\r\n  event OrganisationCreated (\r\n    uint id,\r\n    string name,\r\n    uint coins_wanted,\r\n    address payable addr_org,\r\n    bool reqSatisfied\r\n  );\r\n\r\n  event OrganisationDonated (\r\n    uint id,\r\n    string name,\r\n    uint coins_wanted,\r\n    address payable addr_org,\r\n    bool reqSatisfied\r\n  );\r\n\r\n  constructor() public {\r\n    name = \"Charity Chain\";\r\n  }\r\n\r\n  function createOrganisation(string memory _name, uint _coins_wanted) public {\r\n    // Required Valid Name\r\n    require(bytes(_name).length > 0);\r\n    // Required Valid coins_wanted\r\n    require(_coins_wanted > 0);\r\n    //Increment organisation count\r\n    orgsCount++;\r\n    //create an organisation\r\n    organisations[orgsCount] = Organisation(orgsCount, _name, _coins_wanted, payable(msg.sender), false);\r\n    //Trigger the event\r\n    emit OrganisationCreated(orgsCount, _name, _coins_wanted, payable(msg.sender), false);\r\n  }\r\n\r\n  function giveDonation(uint _id) public payable {\r\n      Organisation memory _org = organisations[_id];\r\n      address payable _addr_org = _org.addr_org;\r\n      require(_org.id > 0 && _org.id <= orgsCount);\r\n      require(msg.value >= _org.coins_wanted);\r\n      require(!_org.reqSatisfied);\r\n      require(_addr_org != msg.sender);\r\n      _org.addr_org = payable(msg.sender);\r\n      // Mark as requirement Satisfied\r\n      _org.reqSatisfied = true;\r\n      // Update the organisation\r\n      organisations[_id] = _org;\r\n      // Pay the organisation\r\n      payable(_addr_org).transfer(msg.value);\r\n      // Trigger the event\r\n      emit OrganisationDonated(orgsCount, _org.name, _org.coins_wanted, payable(msg.sender), true);\r\n  }\r\n}",
  "sourcePath": "D:\\smart-charity-dapp\\contracts\\CharityChain.sol",
  "compiler": {
    "name": "solc",
    "version": "0.8.19+commit.7dd6d404.Emscripten.clang"
  },
  "schemaVersion": "3.4.16",
  "updatedAt": "2023-11-08T07:31:36.014Z",
  "devdoc": {
    "kind": "dev",
    "methods": {},
    "version": 1
  },
  "userdoc": {
    "kind": "user",
    "methods": {},
    "version": 1
  }
}