{
  "contractName": "CharityChain",
  "abi": [
    {
      "inputs": [],
      "stateMutability": "nonpayable",
      "type": "constructor"
    },
    {
      "anonymous": false,
      "inputs": [
        {
          "indexed": false,
          "internalType": "uint256",
          "name": "id",
          "type": "uint256"
        },
        {
          "indexed": false,
          "internalType": "string",
          "name": "name",
          "type": "string"
        },
        {
          "indexed": false,
          "internalType": "uint256",
          "name": "coins_wanted",
          "type": "uint256"
        },
        {
          "indexed": false,
          "internalType": "address payable",
          "name": "addr_org",
          "type": "address"
        },
        {
          "indexed": false,
          "internalType": "bool",
          "name": "reqSatisfied",
          "type": "bool"
        }
      ],
      "name": "OrganisationCreated",
      "type": "event"
    },
    {
      "anonymous": false,
      "inputs": [
        {
          "indexed": false,
          "internalType": "uint256",
          "name": "id",
          "type": "uint256"
        },
        {
          "indexed": false,
          "internalType": "string",
          "name": "name",
          "type": "string"
        },
        {
          "indexed": false,
          "internalType": "uint256",
          "name": "coins_wanted",
          "type": "uint256"
        },
        {
          "indexed": false,
          "internalType": "address payable",
          "name": "addr_org",
          "type": "address"
        },
        {
          "indexed": false,
          "internalType": "bool",
          "name": "reqSatisfied",
          "type": "bool"
        }
      ],
      "name": "OrganisationDonated",
      "type": "event"
    },
    {
      "inputs": [],
      "name": "name",
      "outputs": [
        {
          "internalType": "string",
          "name": "",
          "type": "string"
        }
      ],
      "stateMutability": "view",
      "type": "function",
      "constant": true
    },
    {
      "inputs": [
        {
          "internalType": "uint256",
          "name": "",
          "type": "uint256"
        }
      ],
      "name": "organisations",
      "outputs": [
        {
          "internalType": "uint256",
          "name": "id",
          "type": "uint256"
        },
        {
          "internalType": "string",
          "name": "name",
          "type": "string"
        },
        {
          "internalType": "uint256",
          "name": "coins_wanted",
          "type": "uint256"
        },
        {
          "internalType": "address payable",
          "name": "addr_org",
          "type": "address"
        },
        {
          "internalType": "bool",
          "name": "reqSatisfied",
          "type": "bool"
        }
      ],
      "stateMutability": "view",
      "type": "function",
      "constant": true
    },
    {
      "inputs": [],
      "name": "orgsCount",
      "outputs": [
        {
          "internalType": "uint256",
          "name": "",
          "type": "uint256"
        }
      ],
      "stateMutability": "view",
      "type": "function",
      "constant": true
    },
    {
      "inputs": [
        {
          "internalType": "string",
          "name": "_name",
          "type": "string"
        },
        {
          "internalType": "uint256",
          "name": "_coins_wanted",
          "type": "uint256"
        }
      ],
      "name": "createOrganisation",
      "outputs": [],
      "stateMutability": "nonpayable",
      "type": "function"
    },
    {
      "inputs": [
        {
          "internalType": "uint256",
          "name": "_id",
          "type": "uint256"
        }
      ],
      "name": "giveDonation",
      "outputs": [],
      "stateMutability": "payable",
      "type": "function",
      "payable": true
    },
    {
      "inputs": [
        {
          "internalType": "uint256",
          "name": "_id",
          "type": "uint256"
        }
      ],
      "name": "getOrganisationDetails",
      "outputs": [
        {
          "internalType": "uint256",
          "name": "",
          "type": "uint256"
        },
        {
          "internalType": "string",
          "name": "",
          "type": "string"
        },
        {
          "internalType": "uint256",
          "name": "",
          "type": "uint256"
        },
        {
          "internalType": "address payable",
          "name": "",
          "type": "address"
        },
        {
          "internalType": "bool",
          "name": "",
          "type": "bool"
        }
      ],
      "stateMutability": "view",
      "type": "function",
      "constant": true
    },
    {
      "inputs": [],
      "name": "getCount",
      "outputs": [
        {
          "internalType": "uint256",
          "name": "",
          "type": "uint256"
        }
      ],
      "stateMutability": "view",
      "type": "function",
      "constant": true
    }
  ],
  "bytecode": "0x60806040523480156200001157600080fd5b506040518060400160405280600d81526020017f4368617269747920436861696e0000000000000000000000000000000000000081525060009081620000589190620002e1565b506000600181905550620003c8565b600081519050919050565b7f4e487b7100000000000000000000000000000000000000000000000000000000600052604160045260246000fd5b7f4e487b7100000000000000000000000000000000000000000000000000000000600052602260045260246000fd5b60006002820490506001821680620000e957607f821691505b602082108103620000ff57620000fe620000a1565b5b50919050565b60008190508160005260206000209050919050565b60006020601f8301049050919050565b600082821b905092915050565b600060088302620001697fffffffffffffffffffffffffffffffffffffffffffffffffffffffffffffffff826200012a565b6200017586836200012a565b95508019841693508086168417925050509392505050565b6000819050919050565b6000819050919050565b6000620001c2620001bc620001b6846200018d565b62000197565b6200018d565b9050919050565b6000819050919050565b620001de83620001a1565b620001f6620001ed82620001c9565b84845462000137565b825550505050565b600090565b6200020d620001fe565b6200021a818484620001d3565b505050565b5b8181101562000242576200023660008262000203565b60018101905062000220565b5050565b601f82111562000291576200025b8162000105565b62000266846200011a565b8101602085101562000276578190505b6200028e62000285856200011a565b8301826200021f565b50505b505050565b600082821c905092915050565b6000620002b66000198460080262000296565b1980831691505092915050565b6000620002d18383620002a3565b9150826002028217905092915050565b620002ec8262000067565b67ffffffffffffffff81111562000308576200030762000072565b5b620003148254620000d0565b6200032182828562000246565b600060209050601f83116001811462000359576000841562000344578287015190505b620003508582620002c3565b865550620003c0565b601f198416620003698662000105565b60005b8281101562000393578489015182556001820191506020850194506020810190506200036c565b86831015620003b35784890151620003af601f891682620002a3565b8355505b6001600288020188555050505b505050505050565b61108180620003d86000396000f3fe6080604052600436106100705760003560e01c80635edae5701161004e5780635edae5701461010c5780636a40419a14610128578063a87d942c14610169578063c5802e3a1461019457610070565b8063040f198f1461007557806306fdde03146100a0578063246f8c44146100cb575b600080fd5b34801561008157600080fd5b5061008a6101bd565b6040516100979190610975565b60405180910390f35b3480156100ac57600080fd5b506100b56101c3565b6040516100c29190610a20565b60405180910390f35b3480156100d757600080fd5b506100f260048036038101906100ed9190610a82565b610251565b604051610103959493929190610b0b565b60405180910390f35b61012660048036038101906101219190610a82565b61033c565b005b34801561013457600080fd5b5061014f600480360381019061014a9190610a82565b610680565b604051610160959493929190610b0b565b60405180910390f35b34801561017557600080fd5b5061017e6107ee565b60405161018b9190610975565b60405180910390f35b3480156101a057600080fd5b506101bb60048036038101906101b69190610c9a565b6107f8565b005b60015481565b600080546101d090610d25565b80601f01602080910402602001604051908101604052809291908181526020018280546101fc90610d25565b80156102495780601f1061021e57610100808354040283529160200191610249565b820191906000526020600020905b81548152906001019060200180831161022c57829003601f168201915b505050505081565b600260205280600052604060002060009150905080600001549080600101805461027a90610d25565b80601f01602080910402602001604051908101604052809291908181526020018280546102a690610d25565b80156102f35780601f106102c8576101008083540402835291602001916102f3565b820191906000526020600020905b8154815290600101906020018083116102d657829003601f168201915b5050505050908060020154908060030160009054906101000a900473ffffffffffffffffffffffffffffffffffffffff16908060030160149054906101000a900460ff16905085565b6000600260008381526020019081526020016000206040518060a00160405290816000820154815260200160018201805461037690610d25565b80601f01602080910402602001604051908101604052809291908181526020018280546103a290610d25565b80156103ef5780601f106103c4576101008083540402835291602001916103ef565b820191906000526020600020905b8154815290600101906020018083116103d257829003601f168201915b50505050508152602001600282015481526020016003820160009054906101000a900473ffffffffffffffffffffffffffffffffffffffff1673ffffffffffffffffffffffffffffffffffffffff1673ffffffffffffffffffffffffffffffffffffffff1681526020016003820160149054906101000a900460ff1615151515815250509050600081606001519050600082600001511180156104985750600154826000015111155b6104a157600080fd5b81604001513410156104b257600080fd5b8160800151156104c157600080fd5b3373ffffffffffffffffffffffffffffffffffffffff168173ffffffffffffffffffffffffffffffffffffffff16036104f957600080fd5b33826060019073ffffffffffffffffffffffffffffffffffffffff16908173ffffffffffffffffffffffffffffffffffffffff1681525050600182608001901515908115158152505081600260008581526020019081526020016000206000820151816000015560208201518160010190816105759190610f02565b506040820151816002015560608201518160030160006101000a81548173ffffffffffffffffffffffffffffffffffffffff021916908373ffffffffffffffffffffffffffffffffffffffff16021790555060808201518160030160146101000a81548160ff0219169083151502179055509050508073ffffffffffffffffffffffffffffffffffffffff166108fc349081150290604051600060405180830381858888f19350505050158015610630573d6000803e3d6000fd5b507f406c9231f0109543fe205fc6ea7259106f7abc83300bf8a0d40018c50c49d03260015483602001518460400151336001604051610673959493929190610b0b565b60405180910390a1505050565b60006060600080600080600260008881526020019081526020016000206040518060a0016040529081600082015481526020016001820180546106c290610d25565b80601f01602080910402602001604051908101604052809291908181526020018280546106ee90610d25565b801561073b5780601f106107105761010080835404028352916020019161073b565b820191906000526020600020905b81548152906001019060200180831161071e57829003601f168201915b50505050508152602001600282015481526020016003820160009054906101000a900473ffffffffffffffffffffffffffffffffffffffff1673ffffffffffffffffffffffffffffffffffffffff1673ffffffffffffffffffffffffffffffffffffffff1681526020016003820160149054906101000a900460ff161515151581525050905080600001518160200151826040015183606001518460800151955095509550955095505091939590929450565b6000600154905090565b600082511161080657600080fd5b6000811161081357600080fd5b6001600081548092919061082690611003565b91905055506040518060a0016040528060015481526020018381526020018281526020013373ffffffffffffffffffffffffffffffffffffffff168152602001600015158152506002600060015481526020019081526020016000206000820151816000015560208201518160010190816108a19190610f02565b506040820151816002015560608201518160030160006101000a81548173ffffffffffffffffffffffffffffffffffffffff021916908373ffffffffffffffffffffffffffffffffffffffff16021790555060808201518160030160146101000a81548160ff0219169083151502179055509050507f1acaab70783ea15958153507bf264f308a982bf15231132188438f4f9eac95036001548383336000604051610950959493929190610b0b565b60405180910390a15050565b6000819050919050565b61096f8161095c565b82525050565b600060208201905061098a6000830184610966565b92915050565b600081519050919050565b600082825260208201905092915050565b60005b838110156109ca5780820151818401526020810190506109af565b60008484015250505050565b6000601f19601f8301169050919050565b60006109f282610990565b6109fc818561099b565b9350610a0c8185602086016109ac565b610a15816109d6565b840191505092915050565b60006020820190508181036000830152610a3a81846109e7565b905092915050565b6000604051905090565b600080fd5b600080fd5b610a5f8161095c565b8114610a6a57600080fd5b50565b600081359050610a7c81610a56565b92915050565b600060208284031215610a9857610a97610a4c565b5b6000610aa684828501610a6d565b91505092915050565b600073ffffffffffffffffffffffffffffffffffffffff82169050919050565b6000610ada82610aaf565b9050919050565b610aea81610acf565b82525050565b60008115159050919050565b610b0581610af0565b82525050565b600060a082019050610b206000830188610966565b8181036020830152610b3281876109e7565b9050610b416040830186610966565b610b4e6060830185610ae1565b610b5b6080830184610afc565b9695505050505050565b600080fd5b600080fd5b7f4e487b7100000000000000000000000000000000000000000000000000000000600052604160045260246000fd5b610ba7826109d6565b810181811067ffffffffffffffff82111715610bc657610bc5610b6f565b5b80604052505050565b6000610bd9610a42565b9050610be58282610b9e565b919050565b600067ffffffffffffffff821115610c0557610c04610b6f565b5b610c0e826109d6565b9050602081019050919050565b82818337600083830152505050565b6000610c3d610c3884610bea565b610bcf565b905082815260208101848484011115610c5957610c58610b6a565b5b610c64848285610c1b565b509392505050565b600082601f830112610c8157610c80610b65565b5b8135610c91848260208601610c2a565b91505092915050565b60008060408385031215610cb157610cb0610a4c565b5b600083013567ffffffffffffffff811115610ccf57610cce610a51565b5b610cdb85828601610c6c565b9250506020610cec85828601610a6d565b9150509250929050565b7f4e487b7100000000000000000000000000000000000000000000000000000000600052602260045260246000fd5b60006002820490506001821680610d3d57607f821691505b602082108103610d5057610d4f610cf6565b5b50919050565b60008190508160005260206000209050919050565b60006020601f8301049050919050565b600082821b905092915050565b600060088302610db87fffffffffffffffffffffffffffffffffffffffffffffffffffffffffffffffff82610d7b565b610dc28683610d7b565b95508019841693508086168417925050509392505050565b6000819050919050565b6000610dff610dfa610df58461095c565b610dda565b61095c565b9050919050565b6000819050919050565b610e1983610de4565b610e2d610e2582610e06565b848454610d88565b825550505050565b600090565b610e42610e35565b610e4d818484610e10565b505050565b5b81811015610e7157610e66600082610e3a565b600181019050610e53565b5050565b601f821115610eb657610e8781610d56565b610e9084610d6b565b81016020851015610e9f578190505b610eb3610eab85610d6b565b830182610e52565b50505b505050565b600082821c905092915050565b6000610ed960001984600802610ebb565b1980831691505092915050565b6000610ef28383610ec8565b9150826002028217905092915050565b610f0b82610990565b67ffffffffffffffff811115610f2457610f23610b6f565b5b610f2e8254610d25565b610f39828285610e75565b600060209050601f831160018114610f6c5760008415610f5a578287015190505b610f648582610ee6565b865550610fcc565b601f198416610f7a86610d56565b60005b82811015610fa257848901518255600182019150602085019450602081019050610f7d565b86831015610fbf5784890151610fbb601f891682610ec8565b8355505b6001600288020188555050505b505050505050565b7f4e487b7100000000000000000000000000000000000000000000000000000000600052601160045260246000fd5b600061100e8261095c565b91507fffffffffffffffffffffffffffffffffffffffffffffffffffffffffffffffff82036110405761103f610fd4565b5b60018201905091905056fea2646970667358221220ae62fb2a178ce19a423eed70ce102c59f241b1af83f14bdd70de33a919d0f5b164736f6c63430008130033",
  "immutableReferences": {},
  "source": "// SPDX-License-Identifier: MIT\npragma solidity ^0.8.19;\n\ncontract CharityChain {\n  string public name;\n  uint public orgsCount;\n\n  mapping(uint => Organisation) public organisations;\n\n  struct Organisation {\n    uint id;\n    string name;\n    uint coins_wanted;\n    address payable addr_org;\n    bool reqSatisfied;\n  }\n\n  event OrganisationCreated (\n    uint id,\n    string name,\n    uint coins_wanted,\n    address payable addr_org,\n    bool reqSatisfied\n  );\n\n  event OrganisationDonated (\n    uint id,\n    string name,\n    uint coins_wanted,\n    address payable addr_org,\n    bool reqSatisfied\n  );\n\n  constructor() {\n    name = \"Charity Chain\";\n    orgsCount = 0;\n  }\n\n  function createOrganisation(string memory _name, uint _coins_wanted) public {\n    // Required Valid Name\n    require(bytes(_name).length > 0);\n    // Required Valid coins_wanted\n    require(_coins_wanted > 0);\n    //Increment organisation count\n    orgsCount++;\n    //create an organisation\n    organisations[orgsCount] = Organisation(orgsCount, _name, _coins_wanted, payable(msg.sender), false);\n    //Trigger the event\n    emit OrganisationCreated(orgsCount, _name, _coins_wanted, payable(msg.sender), false);\n  }\n\n  function giveDonation(uint _id) public payable {\n      Organisation memory _org = organisations[_id];\n      address payable _addr_org = _org.addr_org;\n      require(_org.id > 0 && _org.id <= orgsCount);\n      require(msg.value >= _org.coins_wanted);\n      require(!_org.reqSatisfied);\n      require(_addr_org != msg.sender);\n      _org.addr_org = payable(msg.sender);\n      // Mark as requirement Satisfied\n      _org.reqSatisfied = true;\n      // Update the organisation\n      organisations[_id] = _org;\n      // Pay the organisation\n      payable(_addr_org).transfer(msg.value);\n      // Trigger the event\n      emit OrganisationDonated(orgsCount, _org.name, _org.coins_wanted, payable(msg.sender), true);\n  }\n\n  function getOrganisationDetails(uint _id) public view returns (uint, string memory, uint, address payable, bool) {\n    Organisation memory org = organisations[_id];\n    return (org.id, org.name, org.coins_wanted, org.addr_org, org.reqSatisfied);\n  }\n\n    function getCount() public view returns (uint) {\n    return orgsCount;\n  }\n\n}\n\n",
  "sourcePath": "D:\\GTN-BC\\Smart-Charity-Fund-Distribution-main\\contracts\\CharityChain.sol",
  "compiler": {
    "name": "solc",
    "version": "0.8.19+commit.7dd6d404.Emscripten.clang"
  },
  "schemaVersion": "3.4.16",
  "updatedAt": "2024-11-12T16:10:27.865Z",
  "networkType": "ethereum",
  "devdoc": {
    "kind": "dev",
    "methods": {},
    "version": 1
  },
  "userdoc": {
    "kind": "user",
    "methods": {},
    "version": 1
  }
}